{"abi":[{"type":"function","name":"conditionId","inputs":[],"outputs":[{"name":"","type":"bytes32","internalType":"bytes32"}],"stateMutability":"view"},{"type":"function","name":"conditionalTokensParams","inputs":[],"outputs":[{"name":"conditionId","type":"bytes32","internalType":"bytes32"},{"name":"parentCollectionId","type":"bytes32","internalType":"bytes32"},{"name":"parentOutcome","type":"uint256","internalType":"uint256"},{"name":"parentMarket","type":"address","internalType":"address"},{"name":"questionId","type":"bytes32","internalType":"bytes32"}],"stateMutability":"view"},{"type":"function","name":"encodedQuestions","inputs":[{"name":"index","type":"uint256","internalType":"uint256"}],"outputs":[{"name":"","type":"string","internalType":"string"}],"stateMutability":"view"},{"type":"function","name":"initialize","inputs":[{"name":"_marketName","type":"string","internalType":"string"},{"name":"_outcomes","type":"string[]","internalType":"string[]"},{"name":"_lowerBound","type":"uint256","internalType":"uint256"},{"name":"_upperBound","type":"uint256","internalType":"uint256"},{"name":"_conditionalTokensParams","type":"tuple","internalType":"struct Market.ConditionalTokensParams","components":[{"name":"conditionId","type":"bytes32","internalType":"bytes32"},{"name":"parentCollectionId","type":"bytes32","internalType":"bytes32"},{"name":"parentOutcome","type":"uint256","internalType":"uint256"},{"name":"parentMarket","type":"address","internalType":"address"},{"name":"questionId","type":"bytes32","internalType":"bytes32"},{"name":"wrapped1155","type":"address[]","internalType":"contract IERC20[]"},{"name":"data","type":"bytes[]","internalType":"bytes[]"}]},{"name":"_realityParams","type":"tuple","internalType":"struct Market.RealityParams","components":[{"name":"questionsIds","type":"bytes32[]","internalType":"bytes32[]"},{"name":"templateId","type":"uint256","internalType":"uint256"},{"name":"encodedQuestions","type":"string[]","internalType":"string[]"}]},{"name":"_realityProxy","type":"address","internalType":"contract RealityProxy"}],"outputs":[],"stateMutability":"nonpayable"},{"type":"function","name":"initialized","inputs":[],"outputs":[{"name":"","type":"bool","internalType":"bool"}],"stateMutability":"view"},{"type":"function","name":"lowerBound","inputs":[],"outputs":[{"name":"","type":"uint256","internalType":"uint256"}],"stateMutability":"view"},{"type":"function","name":"marketName","inputs":[],"outputs":[{"name":"","type":"string","internalType":"string"}],"stateMutability":"view"},{"type":"function","name":"numOutcomes","inputs":[],"outputs":[{"name":"","type":"uint256","internalType":"uint256"}],"stateMutability":"view"},{"type":"function","name":"outcomes","inputs":[{"name":"","type":"uint256","internalType":"uint256"}],"outputs":[{"name":"","type":"string","internalType":"string"}],"stateMutability":"view"},{"type":"function","name":"parentCollectionId","inputs":[],"outputs":[{"name":"","type":"bytes32","internalType":"bytes32"}],"stateMutability":"view"},{"type":"function","name":"parentMarket","inputs":[],"outputs":[{"name":"","type":"address","internalType":"address"}],"stateMutability":"view"},{"type":"function","name":"parentOutcome","inputs":[],"outputs":[{"name":"","type":"uint256","internalType":"uint256"}],"stateMutability":"view"},{"type":"function","name":"parentWrappedOutcome","inputs":[],"outputs":[{"name":"wrapped1155","type":"address","internalType":"contract IERC20"},{"name":"data","type":"bytes","internalType":"bytes"}],"stateMutability":"view"},{"type":"function","name":"questionId","inputs":[],"outputs":[{"name":"","type":"bytes32","internalType":"bytes32"}],"stateMutability":"view"},{"type":"function","name":"questionsIds","inputs":[],"outputs":[{"name":"","type":"bytes32[]","internalType":"bytes32[]"}],"stateMutability":"view"},{"type":"function","name":"realityParams","inputs":[],"outputs":[{"name":"templateId","type":"uint256","internalType":"uint256"}],"stateMutability":"view"},{"type":"function","name":"realityProxy","inputs":[],"outputs":[{"name":"","type":"address","internalType":"contract RealityProxy"}],"stateMutability":"view"},{"type":"function","name":"resolve","inputs":[],"outputs":[],"stateMutability":"nonpayable"},{"type":"function","name":"templateId","inputs":[],"outputs":[{"name":"","type":"uint256","internalType":"uint256"}],"stateMutability":"view"},{"type":"function","name":"upperBound","inputs":[],"outputs":[{"name":"","type":"uint256","internalType":"uint256"}],"stateMutability":"view"},{"type":"function","name":"wrappedOutcome","inputs":[{"name":"index","type":"uint256","internalType":"uint256"}],"outputs":[{"name":"wrapped1155","type":"address","internalType":"contract IERC20"},{"name":"data","type":"bytes","internalType":"bytes"}],"stateMutability":"view"}],"bytecode":{"object":"0x6080806040523461001657611749908161001b8239f35b5f80fdfe6080806040526004361015610012575f80fd5b5f90813560e01c9081630d0e932b1461144b57508063158ef93e1461142957806318a988a81461135c5780632810e1d6146112d5578063292503ba146112665780632ddc7de7146112485780632ff8d5041461121f578063369b4f521461101a57806344bea37e14611201578063455d885e1461114d5780636fc4eddd146110385780637aa77f291461101a5780638767d64e14610ffc578063a384d6ff14610fde578063b06a5c5214610fc0578063b09ad8a014610fa2578063d03ecc6414610f79578063d0e2ca6514610291578063da2da66f1461024a578063e6bfd26a146101815763eed2a14714610105575f80fd5b3461017e57602036600319011261017e576004359060025482101561017e5760025f5260405161017a906101668161015f817f405787fa12a823e0f2b7631cc41b3ba8828b3321ca811111fa75cd3aa3bb5ace8801611632565b03826114d2565b604051918291602083526020830190611488565b0390f35b80fd5b503461017e578060031936011261017e576040515f60018054906101a4826115fa565b8085529181811690811561022357506001146101cb575b61017a84610166818603826114d2565b5f81815292507fb10e2d527612073b26eecdfd717e6a320cf44b4afac2b0732d9fcbe2b7fa0cf65b82841061020b575050508101602001610166826101bb565b805460208587018101919091529093019281016101f3565b60ff191660208087019190915292151560051b8501909201925061016691508390506101bb565b503461017e578060031936011261017e5760a0600554600654600754600180851b036008541690600954926040519485526020850152604084015260608301526080820152f35b503461017e5760e036600319011261017e576004356001600160401b038111610f75576102c2903690600401611548565b6024356001600160401b038111610f71576102e190369060040161157a565b6001600160401b0360843511610f715760e060843536036003190112610f71576040519060e082018281106001600160401b03821117610eda5760409081526084356004810135845260248101356020850152604481013591840191909152606401356001600160a01b0381168103610eb9576060830152608480350135608083015260a460843501356001600160401b038111610eb9573660238260843501011215610eb9576004816084350101359061039b82611563565b916103a960405193846114d2565b80835260208301913660248360051b8360843501010111610f4657916024836084350101925b60248360051b826084350101018410610f4a575050505060a083015260c460843501356001600160401b038111610eb9573660238260843501011215610eb95760048160843501013561042181611563565b9161042f60405193846114d2565b81835260208301903660248460051b8360843501010111610f46576024816084350101915b60248460051b836084350101018310610ef2575050505060c08301526001600160401b0360a43511610eee57606060a43536036003190112610eee57604051928360608101106001600160401b03606086011117610eda576060840160405260a435600401356001600160401b038111610ebd573660238260a43501011215610ebd5760048160a4350101356104e981611563565b916104f760405193846114d2565b81835260208301903660248460051b8360a43501010111610ed6579060248260a4350101915b60248460051b8260a4350101018310610ec157505050508452602460a43501356020850152604460a43501356001600160401b038111610ebd57610569906004369160a435010161157a565b604085015260c4356001600160a01b0381169003610eb95760ff855416610e7d578051906001600160401b038211610e695781906105a86001546115fa565b601f8111610e10575b50602090601f8311600114610d89578792610d7e575b50508160011b915f199060031b1c1916176001555b805190600160401b8211610bee5760025482600255808310610ced575b50602001600285527f405787fa12a823e0f2b7631cc41b3ba8828b3321ca811111fa75cd3aa3bb5ace85915b838310610c02575050505060443560035560643560045580516005556020810151600655604081015160075560018060a01b036060820151166bffffffffffffffffffffffff60a01b6008541617600855608081015160095560a08101518051906001600160401b038211610bee57600160401b8211610bee57602090600a5483600a55808410610bb8575b5001600a8552845b828110610b7b5750505060c00151805190600160401b82116109eb57600b5482600b55808310610aea575b50602001600b84527f0175b7a638427703f0dbe7bb9bbf987a2551717b34e79f33b5b1008d1fa01db984915b8383106109ff57858580518051906001600160401b0382116109eb57600160401b82116109eb57600c5482600c558083106109aa575b50602001600c8452835b82811061097657846040856020810151600d550151805190600160401b821161096257600e5482600e558083106108d2575b50602001600e83527fbb7b4a454dc3493923482f07822329ed19e8244eff582cc204f8554c3620c3fd83915b8383106107e157600f80546001600160a01b03191660c4356001600160a01b0316179055845460ff191660011785558480f35b80518051906001600160401b0382116108be576108088261080286546115fa565b866116d9565b602090601f83116001146108525792826001949360209386958b92610847575b50505f19600383901b1c191690841b1785555b019201920191906107ae565b015190508a80610828565b908488526020882091885b601f19851681106108a6575083602093600196938796938794601f1981161061088e575b505050811b01855561083b565b01515f1960f88460031b161c191690558a8080610881565b9192602060018192868501518155019401920161085d565b634e487b7160e01b87526041600452602487fd5b600e8452827fbb7b4a454dc3493923482f07822329ed19e8244eff582cc204f8554c3620c3fd91820191015b81811061090b5750610782565b8085610919600193546115fa565b80610927575b5050016108fe565b601f8111841461093e5750505f81555b858761091f565b828252610959601f60208420920160051c82018583016116c3565b5f835555610937565b634e487b7160e01b83526041600452602483fd5b60019060208351930192817fdf6966c971051c3d54ec59162606531493a51404a002842f56009d7e5cf4a8c7015501610750565b7fdf6966c971051c3d54ec59162606531493a51404a002842f56009d7e5cf4a8c7908382015b81830181106109e0575050610746565b5f81556001016109d0565b634e487b7160e01b84526041600452602484fd5b80518051906001600160401b038211610ad657610a208261080286546115fa565b602090601f8311600114610a6a5792826001949360209386958c92610a5f575b50505f19600383901b1c191690841b1785555b01920192019190610710565b015190505f80610a40565b908489526020892091895b601f1985168110610abe575083602093600196938796938794601f19811610610aa6575b505050811b018555610a53565b01515f1960f88460031b161c191690555f8080610a99565b91926020600181928685015181550194019201610a75565b634e487b7160e01b88526041600452602488fd5b600b85527f0175b7a638427703f0dbe7bb9bbf987a2551717b34e79f33b5b1008d1fa01db9908382015b8183018110610b245750506106e4565b8087610b32600193546115fa565b80610b40575b505001610b14565b601f81118414610b575750505f81555b875f610b38565b828252610b72601f60208420920160051c82018583016116c3565b5f835555610b50565b81516001600160a01b03167fc65a7bb8d6351c1cf70c95a316cc6a92839c986682d98bc35f958f4883f9d2a88201556020909101906001016106b9565b610be890847fc65a7bb8d6351c1cf70c95a316cc6a92839c986682d98bc35f958f4883f9d2a891820191016116c3565b5f6106b1565b634e487b7160e01b85526041600452602485fd5b80518051906001600160401b038211610cd957610c238261080286546115fa565b602090601f8311600114610c6d5792826001949360209386958d92610c62575b50505f19600383901b1c191690841b1785555b01920192019190610625565b015190505f80610c43565b90848a5260208a20918a5b601f1985168110610cc1575083602093600196938796938794601f19811610610ca9575b505050811b018555610c56565b01515f1960f88460031b161c191690555f8080610c9c565b91926020600181928685015181550194019201610c78565b634e487b7160e01b89526041600452602489fd5b600286527f405787fa12a823e0f2b7631cc41b3ba8828b3321ca811111fa75cd3aa3bb5ace908382015b8183018110610d275750506105f9565b8088610d35600193546115fa565b80610d43575b505001610d17565b601f81118414610d5a5750505f81555b885f610d3b565b828252610d75601f60208420920160051c82018583016116c3565b5f835555610d53565b015190505f806105c7565b9250600187527fb10e2d527612073b26eecdfd717e6a320cf44b4afac2b0732d9fcbe2b7fa0cf69087935b601f1984168510610df5576001945083601f19811610610ddd575b505050811b016001556105dc565b01515f1960f88460031b161c191690555f8080610dcf565b81810151835560209485019460019093019290910190610db4565b610e599060015f527fb10e2d527612073b26eecdfd717e6a320cf44b4afac2b0732d9fcbe2b7fa0cf6601f850160051c81019160208610610e5f575b601f0160051c01906116c3565b5f6105b1565b9091508190610e4c565b634e487b7160e01b86526041600452602486fd5b60405162461bcd60e51b815260206004820152601460248201527320b63932b0b23c9034b734ba34b0b634bd32b21760611b6044820152606490fd5b8480fd5b8580fd5b6020806024938535815201930192915061051d565b8880fd5b634e487b7160e01b5f52604160045260245ffd5b8380fd5b8235906001600160401b038211610f425736604383856084350101011215610f42576024916020918291610f35903690608435880101808701359060440161150e565b8152019301929050610454565b8980fd5b8780fd5b8335916001600160a01b0383168303610f42576020816024948293520194019391506103cf565b8280fd5b5080fd5b503461017e578060031936011261017e576008546040516001600160a01b039091168152602090f35b503461017e578060031936011261017e576020600454604051908152f35b503461017e578060031936011261017e576020600954604051908152f35b503461017e578060031936011261017e576020600354604051908152f35b503461017e578060031936011261017e576020600254604051908152f35b503461017e578060031936011261017e576020600d54604051908152f35b503461017e578060031936011261017e576008546060919081906001600160a01b0390811680611075575b50505061017a604051928392836114ad565b919350915082600754602460405180948193630315311560e31b835260048301525afa918215611142578380936110b3575b505050905f8080611063565b91935091503d8082853e6110c781856114d2565b830192604081850312610f755780519283168303610f75576020810151906001600160401b038211610f71570183601f82011215610f755780519161110b836114f3565b9461111960405196876114d2565b8386526020848401011161017e5750906111399160208086019101611467565b905f80806110a7565b6040513d85823e3d90fd5b503461017e578060031936011261017e576040518091600c549081835260208093018092600c83527fdf6966c971051c3d54ec59162606531493a51404a002842f56009d7e5cf4a8c790835b8181106111ed57505050846111af9103856114d2565b60405193838594850191818652518092526040850193925b8281106111d657505050500390f35b8351855286955093810193928101926001016111c7565b825484529286019260019283019201611199565b503461017e578060031936011261017e576020600654604051908152f35b503461017e578060031936011261017e57600f546040516001600160a01b039091168152602090f35b503461017e578060031936011261017e576020600554604051908152f35b503461017e57602036600319011261017e57600435600e548110156112c15761015f61016661017a92600e5f52604051928380927fbb7b4a454dc3493923482f07822329ed19e8244eff582cc204f8554c3620c3fd01611632565b634e487b7160e01b5f52603260045260245ffd5b503461017e578060031936011261017e57600f5481906001600160a01b0316803b156113595781906024604051809481936355ea6c4760e01b83523060048401525af1801561134e57611326575080f35b6001600160401b03811161133a5760405280f35b634e487b7160e01b82526041600452602482fd5b6040513d84823e3d90fd5b50fd5b503461017e57602036600319011261017e57600435600a548110156114155760018060a01b03817fc65a7bb8d6351c1cf70c95a316cc6a92839c986682d98bc35f958f4883f9d2a801541690600b54811015611401576113f290600b6113eb9452604051938480927f0175b7a638427703f0dbe7bb9bbf987a2551717b34e79f33b5b1008d1fa01db901611632565b03836114d2565b61017a604051928392836114ad565b634e487b7160e01b83526032600452602483fd5b634e487b7160e01b82526032600452602482fd5b503461017e578060031936011261017e5760ff60209154166040519015158152f35b905034610f755781600319360112610f75576020906007548152f35b5f5b8381106114785750505f910152565b8181015183820152602001611469565b906020916114a181518092818552858086019101611467565b601f01601f1916010190565b6001600160a01b0390911681526040602082018190526114cf92910190611488565b90565b90601f801991011681019081106001600160401b03821117610eda57604052565b6001600160401b038111610eda57601f01601f191660200190565b92919261151a826114f3565b9161152860405193846114d2565b829481845281830111611544578281602093845f960137010152565b5f80fd5b9080601f83011215611544578160206114cf9335910161150e565b6001600160401b038111610eda5760051b60200190565b9080601f830112156115445781359061159282611563565b926115a060405194856114d2565b828452602092838086019160051b8301019280841161154457848301915b8483106115ce5750505050505090565b82356001600160401b0381116115445786916115ef84848094890101611548565b8152019201916115be565b90600182811c92168015611628575b602083101461161457565b634e487b7160e01b5f52602260045260245ffd5b91607f1691611609565b905f9291805491611642836115fa565b9182825260019384811690815f146116a05750600114611663575b50505050565b90919394505f52602092835f2092845f945b83861061168c57505050500101905f80808061165d565b805485870183015294019385908201611675565b9294505050602093945060ff191683830152151560051b0101905f80808061165d565b8181106116ce575050565b5f81556001016116c3565b9190601f81116116e857505050565b611711925f5260205f20906020601f840160051c83019310610e5f57601f0160051c01906116c3565b56fea2646970667358221220dcf36572fe0bc515453555640a6fadaa9c9a1e6d985334a5706a3d89c21da13064736f6c63430008140033","linkReferences":{}},"methodIdentifiers":{"conditionId()":"2ddc7de7","conditionalTokensParams()":"da2da66f","encodedQuestions(uint256)":"292503ba","initialize(string,string[],uint256,uint256,(bytes32,bytes32,uint256,address,bytes32,address[],bytes[]),(bytes32[],uint256,string[]),address)":"d0e2ca65","initialized()":"158ef93e","lowerBound()":"a384d6ff","marketName()":"e6bfd26a","numOutcomes()":"8767d64e","outcomes(uint256)":"eed2a147","parentCollectionId()":"44bea37e","parentMarket()":"d03ecc64","parentOutcome()":"0d0e932b","parentWrappedOutcome()":"6fc4eddd","questionId()":"b06a5c52","questionsIds()":"455d885e","realityParams()":"369b4f52","realityProxy()":"2ff8d504","resolve()":"2810e1d6","templateId()":"7aa77f29","upperBound()":"b09ad8a0","wrappedOutcome(uint256)":"18a988a8"},"id":7}