{"abi":[{"type":"constructor","inputs":[{"name":"_conditionalTokens","type":"address","internalType":"contract IConditionalTokens"},{"name":"_realitio","type":"address","internalType":"contract IRealityETH_v3_0"}],"stateMutability":"nonpayable"},{"type":"function","name":"conditionalTokens","inputs":[],"outputs":[{"name":"","type":"address","internalType":"contract IConditionalTokens"}],"stateMutability":"view"},{"type":"function","name":"realitio","inputs":[],"outputs":[{"name":"","type":"address","internalType":"contract IRealityETH_v3_0"}],"stateMutability":"view"},{"type":"function","name":"resolve","inputs":[{"name":"market","type":"address","internalType":"contract Market"}],"outputs":[],"stateMutability":"nonpayable"}],"bytecode":{"object":"0x60c0346100b457601f610c1f38819003918201601f19168301916001600160401b038311848410176100b85780849260409485528339810103126100b45780516001600160a01b039182821682036100b4576020015191821682036100b45760805260a052604051610b5290816100cd8239608051818181609801528181610334015281816104b901526106b6015260a0518181816050015281816102be015281816104830152818161065701526107e60152f35b5f80fd5b634e487b7160e01b5f52604160045260245ffdfe60806040526004361015610011575f80fd5b5f803560e01c806355ea6c47146100c75780635bd9e299146100825763bc8802a21461003b575f80fd5b3461007f578060031936011261007f576040517f00000000000000000000000000000000000000000000000000000000000000006001600160a01b03168152602090f35b80fd5b503461007f578060031936011261007f576040517f00000000000000000000000000000000000000000000000000000000000000006001600160a01b03168152602090f35b503461007f57602036600319011261007f576004356001600160a01b03811681036100f8576100f59061015e565b80f35b5080fd5b67ffffffffffffffff811161011057604052565b634e487b7160e01b5f52604160045260245ffd5b90601f8019910116810190811067ffffffffffffffff82111761011057604052565b67ffffffffffffffff81116101105760051b60200190565b604080516322aec42f60e11b81525f93926001600160a01b039081169160049186828481875afa918215610a29578792610997575b5084516343b3eb2760e11b815260209485828681845afa9182156107b5578992610964575b508651637aa77f2960e01b81529386858781855afa94851561095a578a95610927575b50875163a384d6ff60e01b81529187838881845afa92831561045a5787929189918d956108f5575b508a51630584d6c560e51b815293849182905afa91821561045a578b926108c6575b508880518c818b888183019560c0840160a08852885180915260e0850193808a0196905b8282106108a35750505061027b94508301528a60608301528760808301528660a083015203601f198101835282610124565b51902095600281146107bf57600314610631576001938482511161046457506102a390610a33565b519088519163ab5a4e3560e01b8352878301528782602481887f0000000000000000000000000000000000000000000000000000000000000000165afa91821561045a578b92610427575b508851976080890189811067ffffffffffffffff821117610414578a526003895260609036908a01375f1982036103c1575050508451600210156103ae5760608501525b7f00000000000000000000000000000000000000000000000000000000000000001691823b156103aa579186939184610381979894875198899586948593633124a62b60e21b85528401610aaa565b03925af19182156103a05750506103955750565b61039e906100fc565b565b51903d90823e3d90fd5b8680fd5b634e487b7160e01b885260328452602488fd5b8282116103da575050506103d485610a33565b52610332565b8082106103ed575050506103d485610a54565b61040b9350816103fc91610b0f565b61040588610a33565b52610b0f565b6103d485610a54565b634e487b7160e01b8d526041895260248dfd5b9091508781813d8311610453575b61043f8183610124565b8101031261044f5751905f6102ee565b8a80fd5b503d610435565b89513d8d823e3d90fd5b9250905082820180831161061e5761047b90610a78565b9683918b91867f000000000000000000000000000000000000000000000000000000000000000016905b8584106105185750505050610506575b50507f00000000000000000000000000000000000000000000000000000000000000001691823b156103aa579186939184610381979894875198899586948593633124a62b60e21b85528401610aaa565b6105109086610a64565b525f806104b5565b909192938d6105278686610a64565b518d519063ab5a4e3560e01b82528c8201528381602481885afa91821561061357916105e2575b50610559868d610a64565b525f19610566868d610a64565b51036105a8578d610577868d610a64565b525b80610591575b6105899094610aed565b9291906104a5565b5061058961059f858c610a64565b5115905061057f565b6fffffffffffffffffffffffffffffffff806105c4878e610a64565b51116105d1575b50610579565b6105db868d610a64565b525f6105cb565b90508281813d831161060c575b6105f98183610124565b8101031261060857515f61054e565b8e80fd5b503d6105ef565b8e51903d90823e3d90fd5b634e487b7160e01b8b526011875260248bfd5b905061063d9150610a33565b5186519063ab5a4e3560e01b8252858201528581602481867f0000000000000000000000000000000000000000000000000000000000000000165afa9586156107b5578996610781575b505060019081810180821161076e5761069f90610a78565b955f19810361070357506106b39086610a64565b527f00000000000000000000000000000000000000000000000000000000000000001691823b156103aa579186939184610381979894875198899586948593633124a62b60e21b85528401610aaa565b82908a905b83821061072f57505061071d575b5050610332565b6107279086610a64565b525f80610716565b90918482841c16610740848b610a64565b5280610757575b6107519092610aed565b90610708565b50610751610765838a610a64565b51159050610747565b634e487b7160e01b8a526011865260248afd5b9080929650813d83116107ae575b6107998183610124565b810103126107aa5751935f80610687565b8780fd5b503d61078f565b87513d8b823e3d90fd5b5090506107cc9150610a33565b5186519063ab5a4e3560e01b8252858201528581602481867f0000000000000000000000000000000000000000000000000000000000000000165afa9586156107b5578996610873575b505060018101808211610860579061082f600192610a78565b955f1981148015610856575b1561084b57506106b39086610a64565b6103d4915086610a64565b508181101561083b565b634e487b7160e01b895260118552602489fd5b9080929650813d831161089c575b61088b8183610124565b810103126107aa5751935f80610816565b503d610881565b92509382919550600193508651815201940191018e85938f928c93969496610249565b9091508781813d83116108ee575b6108de8183610124565b8101031261044f5751905f610225565b503d6108d4565b9350935082813d8311610920575b61090d8183610124565b8101031261044f5787879251935f610203565b503d610903565b9094508681813d8311610953575b61093f8183610124565b8101031261094f5751935f6101db565b8980fd5b503d610935565b88513d8c823e3d90fd5b9091508581813d8311610990575b61097c8183610124565b8101031261098c5751905f6101b8565b8880fd5b503d610972565b9091503d8088833e6109a98183610124565b810190602090818184031261098c5780519067ffffffffffffffff821161094f57019180601f8401121561098c5782516109e281610146565b936109ef89519586610124565b818552838086019260051b82010192831161044f578301905b828210610a1a5750505050905f610193565b81518152908301908301610a08565b85513d89823e3d90fd5b805115610a405760200190565b634e487b7160e01b5f52603260045260245ffd5b805160011015610a405760400190565b8051821015610a405760209160051b010190565b90610a8282610146565b610a8f6040519182610124565b8281528092610aa0601f1991610146565b0190602036910137565b906060916040810191815260209281604085809401528551809452019301915f5b828110610ad9575050505090565b835185529381019392810192600101610acb565b5f198114610afb5760010190565b634e487b7160e01b5f52601160045260245ffd5b91908203918211610afb5756fea2646970667358221220aabab3c15fdb19c09f8500b0783c4fe0d20a479d9fe697c0fc545c8dfd30cc6864736f6c63430008140033","linkReferences":{}},"methodIdentifiers":{"conditionalTokens()":"5bd9e299","realitio()":"bc8802a2","resolve(address)":"55ea6c47"},"id":9}