{"abi":[{"type":"constructor","inputs":[{"name":"_conditionalTokens","type":"address","internalType":"contract IConditionalTokens"},{"name":"_wrapped1155Factory","type":"address","internalType":"contract IWrapped1155Factory"}],"stateMutability":"nonpayable"},{"type":"function","name":"conditionalTokens","inputs":[],"outputs":[{"name":"","type":"address","internalType":"contract IConditionalTokens"}],"stateMutability":"view"},{"type":"function","name":"getTokenId","inputs":[{"name":"collateralToken","type":"address","internalType":"contract IERC20"},{"name":"parentCollectionId","type":"bytes32","internalType":"bytes32"},{"name":"conditionId","type":"bytes32","internalType":"bytes32"},{"name":"indexSet","type":"uint256","internalType":"uint256"}],"outputs":[{"name":"","type":"uint256","internalType":"uint256"}],"stateMutability":"view"},{"type":"function","name":"getWinningOutcomes","inputs":[{"name":"conditionId","type":"bytes32","internalType":"bytes32"}],"outputs":[{"name":"","type":"bool[]","internalType":"bool[]"}],"stateMutability":"view"},{"type":"function","name":"mergePositions","inputs":[{"name":"collateralToken","type":"address","internalType":"contract IERC20"},{"name":"market","type":"address","internalType":"contract Market"},{"name":"amount","type":"uint256","internalType":"uint256"}],"outputs":[],"stateMutability":"nonpayable"},{"type":"function","name":"onERC1155BatchReceived","inputs":[{"name":"","type":"address","internalType":"address"},{"name":"","type":"address","internalType":"address"},{"name":"","type":"uint256[]","internalType":"uint256[]"},{"name":"","type":"uint256[]","internalType":"uint256[]"},{"name":"","type":"bytes","internalType":"bytes"}],"outputs":[{"name":"","type":"bytes4","internalType":"bytes4"}],"stateMutability":"nonpayable"},{"type":"function","name":"onERC1155Received","inputs":[{"name":"","type":"address","internalType":"address"},{"name":"","type":"address","internalType":"address"},{"name":"","type":"uint256","internalType":"uint256"},{"name":"","type":"uint256","internalType":"uint256"},{"name":"","type":"bytes","internalType":"bytes"}],"outputs":[{"name":"","type":"bytes4","internalType":"bytes4"}],"stateMutability":"nonpayable"},{"type":"function","name":"redeemPositions","inputs":[{"name":"collateralToken","type":"address","internalType":"contract IERC20"},{"name":"market","type":"address","internalType":"contract Market"},{"name":"outcomeIndexes","type":"uint256[]","internalType":"uint256[]"},{"name":"amounts","type":"uint256[]","internalType":"uint256[]"}],"outputs":[],"stateMutability":"nonpayable"},{"type":"function","name":"splitPosition","inputs":[{"name":"collateralToken","type":"address","internalType":"contract IERC20"},{"name":"market","type":"address","internalType":"contract Market"},{"name":"amount","type":"uint256","internalType":"uint256"}],"outputs":[],"stateMutability":"nonpayable"},{"type":"function","name":"supportsInterface","inputs":[{"name":"interfaceId","type":"bytes4","internalType":"bytes4"}],"outputs":[{"name":"","type":"bool","internalType":"bool"}],"stateMutability":"view"},{"type":"function","name":"wrapped1155Factory","inputs":[],"outputs":[{"name":"","type":"address","internalType":"contract IWrapped1155Factory"}],"stateMutability":"view"}],"bytecode":{"object":"0x60c03461016c57601f61230838819003918201601f19168301916001600160401b0383118484101761017057808492604094855283398101031261016c5780516001600160a01b0391828216820361016c5760200151918216820361016c5760805260a0526040516121839081610185823960805181818161019e015281816102440152818161031a01528181610356015281816103b301528181610444015281816104c601528181610671015281816109ba01528181610a3301528181610b9301528181610c1101528181610c9301528181610e1901528181610e7b01528181611046015281816112b3015281816113e3015281816114c601528181611516015281816116260152818161169101528181611713015281816118d7015281816119af0152612069015260a0518181816102c30152818161048f01528181610c5c01528181610ffa0152818161107c0152818161139601528181611419015281816116dc01526119520152f35b5f80fd5b634e487b7160e01b5f52604160045260245ffdfe6080806040526004361015610012575f80fd5b5f3560e01c90816301ffc9a714611b235750806302bd74c314611981578063150c5b971461193d5780631a09424a146119065780635bd9e299146118c25780637abef8d114611225578063865955a0146108a4578063bc197c811461081b578063d5f82280146100e45763f23a6e611461008a575f80fd5b346100e05760a03660031901126100e0576100a3611b76565b506100ac611b8c565b5060843567ffffffffffffffff81116100e0576100cd903690600401611ce4565b5060405163f23a6e6160e01b8152602090f35b5f80fd5b346100e0576100f236611ba2565b60405163225f51bf60e11b80825291939291906020816004816001600160a01b0387165afa908115610590575f916107e9575b5015610786575b6040519081526020816004816001600160a01b0386165afa908115610590575f91610754575b50604051632ddc7de760e01b8152906020826004816001600160a01b0387165afa918215610590575f92610720575b50604051636a16e06160e11b8152600481018390526020816024817f00000000000000000000000000000000000000000000000000000000000000006001600160a01b03165afa8015610590575f906106ec575b6101df9150612001565b811561066257604051636fc4eddd60e01b81525f816004816001600160a01b0389165afa908115610590575f905f92610645575b5060405163039dd75360e41b81526001600160a01b03881660048201526024810185905290602082806044810103817f00000000000000000000000000000000000000000000000000000000000000006001600160a01b03165afa918215610590575f92610610575b506040516323b872dd60e01b8152336004820152306024820152604481018a905290602090829060649082905f906001600160a01b03165af18015610590576105f1575b507f00000000000000000000000000000000000000000000000000000000000000006001600160a01b031691823b156100e057610343925f92838b604051968795869485936314abb2c960e21b8552309160018060a01b037f00000000000000000000000000000000000000000000000000000000000000001660048701611e02565b03925af18015610590576105e2575b505b7f00000000000000000000000000000000000000000000000000000000000000006001600160a01b03163b156100e0576040516372ce427560e01b81525f81806103ae8a8689896001600160a01b038e1660048701611e67565b0381837f00000000000000000000000000000000000000000000000000000000000000006001600160a01b03165af18015610590576105d3575b505f5b81518110156105d15761040a6104018284611ebf565b51858589612036565b604051630315311560e31b81526004810183905291905f836024816001600160a01b038b165afa908115610590575f935f926105aa575b507f00000000000000000000000000000000000000000000000000000000000000006001600160a01b03163b156100e057604051637921219560e11b8152915f91839182916104c191908e907f00000000000000000000000000000000000000000000000000000000000000006001600160a01b03163060048701611ee7565b0381837f00000000000000000000000000000000000000000000000000000000000000006001600160a01b03165af18015610590575f9360209261052e9261059b575b5060405163a9059cbb60e01b8152336004820152602481018c905294859283919082906044820190565b03926001600160a01b03165af19182156105905761055c92610557915f91610561575b50611f1a565b611e9d565b6103eb565b610583915060203d602011610589575b61057b8183611c30565b810190611d2a565b8a610551565b503d610571565b6040513d5f823e3d90fd5b6105a490611c08565b8b610504565b9093506105c991503d805f833e6105c18183611c30565b810190611d63565b90928a610441565b005b6105dc90611c08565b866103e8565b6105eb90611c08565b86610352565b6106099060203d6020116105895761057b8183611c30565b50886102c0565b9091506020813d60201161063d575b8161062c60209383611c30565b810103126100e0575190602061027c565b3d915061061f565b905061065b91503d805f833e6105c18183611c30565b9088610213565b60405163095ea7b360e01b81527f00000000000000000000000000000000000000000000000000000000000000006001600160a01b0316600482015260248101879052602081806044810103815f6001600160a01b038b165af18015610590576106cd575b50610354565b6106e59060203d6020116105895761057b8183611c30565b50866106c7565b506020813d602011610718575b8161070660209383611c30565b810103126100e0576101df90516101d5565b3d91506106f9565b9091506020813d60201161074c575b8161073c60209383611c30565b810103126100e057519085610181565b3d915061072f565b90506020813d60201161077e575b8161076f60209383611c30565b810103126100e0575184610152565b3d9150610762565b6040516323b872dd60e01b8152336004820152306024820152604481018590526020816064815f6001600160a01b0389165af18015610590576107ca575b5061012c565b6107e29060203d6020116105895761057b8183611c30565b50846107c4565b90506020813d602011610813575b8161080460209383611c30565b810103126100e0575185610125565b3d91506107f7565b346100e05760a03660031901126100e057610834611b76565b5061083d611b8c565b5067ffffffffffffffff6044358181116100e05761085f903690600401611c6a565b506064358181116100e057610878903690600401611c6a565b506084359081116100e057610891903690600401611ce4565b5060405163bc197c8160e01b8152602090f35b346100e05760803660031901126100e0576108bd611b76565b6108c5611b8c565b67ffffffffffffffff906044358281116100e0576108e7903690600401611bd7565b926064359081116100e057610900903690600401611bd7565b60405163225f51bf60e11b808252909492916020866004816001600160a01b0388165afa958615610590575f966111f1575b505f968615611181575b6040519283526020836004816001600160a01b0389165afa928315610590575f9361114d575b50604051632ddc7de760e01b8152956020876004816001600160a01b038a165afa968715610590575f97611119575b509391905f946109a082611fbf565b935f935b838510610f185750505050505f9482610de5575b7f00000000000000000000000000000000000000000000000000000000000000006001600160a01b03163b156100e057604051626dc0df60e21b81526001600160a01b038a16600482015260248101849052604481019190915260806064820152905f9082908190610a2e906084830190611e34565b0381837f00000000000000000000000000000000000000000000000000000000000000006001600160a01b03165af1801561059057610dd6575b50610b69575b50505015610a7857005b6040516370a0823160e01b8152306004820152906020826024815f6001600160a01b0388165af1918215610590575f92610b35575b50808211610ab757005b5f92610ac8610af292602094611fb2565b60405163a9059cbb60e01b8152336004820152602481019190915293849283919082906044820190565b03926001600160a01b03165af18015610590576105d1915f91610b16575b50611f66565b610b2f915060203d6020116105895761057b8183611c30565b82610b10565b9091506020813d602011610b61575b81610b5160209383611c30565b810103126100e057519083610aad565b3d9150610b44565b604051627eeac760e11b815230600482015260248101829052916020836044816001600160a01b037f0000000000000000000000000000000000000000000000000000000000000000165afa928315610590575f93610da2575b50838311610bd2575b50610a6e565b604051636fc4eddd60e01b8152905f90829060049082906001600160a01b03165afa918215610590575f915f93610d84575b50610c0f8585611fb2565b7f00000000000000000000000000000000000000000000000000000000000000006001600160a01b03163b156100e057604051637921219560e11b8152935f9285928392610c8e929091907f00000000000000000000000000000000000000000000000000000000000000006001600160a01b03163060048701611ee7565b0381837f00000000000000000000000000000000000000000000000000000000000000006001600160a01b03165af18015610590575f94602094610cdb94610ac893610d75575b50611fb2565b03926001600160a01b03165af1908115610590575f91610d56575b5015610d055783808080610bcc565b60405162461bcd60e51b8152602060048201526024808201527f506172656e74207772617070656420746f6b656e207472616e736665722066616044820152631a5b195960e21b6064820152608490fd5b610d6f915060203d6020116105895761057b8183611c30565b84610cf6565b610d7e90611c08565b8a610cd5565b909250610d9b91503d805f833e6105c18183611c30565b9188610c04565b9092506020813d602011610dce575b81610dbe60209383611c30565b810103126100e057519187610bc3565b3d9150610db1565b610ddf90611c08565b87610a68565b60405163039dd75360e41b81526001600160a01b038a166004820152602481018490529095509250602083806044810103817f00000000000000000000000000000000000000000000000000000000000000006001600160a01b03165afa928315610590575f93610ee4575b50604051627eeac760e11b8152306004820152602481018490526020816044816001600160a01b037f0000000000000000000000000000000000000000000000000000000000000000165afa908115610590575f91610eb2575b50946109b8565b90506020813d602011610edc575b81610ecd60209383611c30565b810103126100e0575189610eab565b3d9150610ec0565b9092506020813d602011610f10575b81610f0060209383611c30565b810103126100e057519188610e51565b3d9150610ef3565b9091929396506001610f2b888686611ff1565b351b610f378887611ebf565b52610f4f8c8a88610f488b8a611ebf565b5192612036565b96610f5b818686611ff1565b604051630315311560e31b815290356004820152905f826024816001600160a01b038e165afa918215610590575f905f936110f3575b506020610fd35f92610fa485888a611ff1565b6040516323b872dd60e01b81523360048201523060248201529035604482015293849283919082906064820190565b03926001600160a01b03165af18015610590576110d4575b50610ff7818486611ff1565b357f00000000000000000000000000000000000000000000000000000000000000006001600160a01b03163b156100e0576040516314abb2c960e21b8152925f9184918291611077919030908f7f00000000000000000000000000000000000000000000000000000000000000006001600160a01b031660048701611e02565b0381837f00000000000000000000000000000000000000000000000000000000000000006001600160a01b03165af1918215610590576110bc926110c5575b50611e9d565b939291906109a4565b6110ce90611c08565b8e6110b6565b6110ec9060203d6020116105895761057b8183611c30565b508e610feb565b610fd393505f91506111106020913d8085833e6105c18183611c30565b94509150610f91565b9096506020813d602011611145575b8161113560209383611c30565b810103126100e05751958a610991565b3d9150611128565b9092506020813d602011611179575b8161116960209383611c30565b810103126100e057519189610962565b3d915061115c565b6040516370a0823160e01b81523060048201529097506020816024815f6001600160a01b038e165af1908115610590575f916111bf575b509661093c565b90506020813d6020116111e9575b816111da60209383611c30565b810103126100e05751896111b8565b3d91506111cd565b9095506020813d60201161121d575b8161120d60209383611c30565b810103126100e057519488610932565b3d9150611200565b346100e05761123336611ba2565b60405163225f51bf60e11b8082529193919291906020816004816001600160a01b0387165afa908115610590575f91611890575b50604051632ddc7de760e01b8152906020826004816001600160a01b0388165afa918215610590575f9261185c575b50604051636a16e06160e11b8152600481018390526020816024817f00000000000000000000000000000000000000000000000000000000000000006001600160a01b03165afa8015610590575f90611828575b6112f49150612001565b5f5b81518110156114b15761131561130c8284611ebf565b51858588612036565b604051630315311560e31b81526004810183905291905f836024816001600160a01b038c165afa928315610590575f905f9461148b575b506040516323b872dd60e01b8152336004820152306024820152604481018c9052906020908290815f81606481015b03926001600160a01b03165af180156105905761146c575b507f00000000000000000000000000000000000000000000000000000000000000006001600160a01b03163b156100e0576040516314abb2c960e21b8152925f9184918291611414919030908f907f00000000000000000000000000000000000000000000000000000000000000006001600160a01b031660048701611e02565b0381837f00000000000000000000000000000000000000000000000000000000000000006001600160a01b03165af1918215610590576114589261145d5750611e9d565b6112f6565b61146690611c08565b896110b6565b6114849060203d6020116105895761057b8183611c30565b508a611393565b61137b94505f91506114a86020913d8085833e6105c18183611c30565b9550915061134c565b506001600160a01b03938416959193919290917f0000000000000000000000000000000000000000000000000000000000000000163b156100e057604051639e7212ad60e01b8152915f9183918291611511918b91898c60048701611e67565b0381837f00000000000000000000000000000000000000000000000000000000000000006001600160a01b03165af1801561059057611819575b50816115f6575b6040519081529160209150829060049082906001600160a01b03165afa908115610590575f916115c4575b501561158557005b60405163a9059cbb60e01b81523360048201526024810192909252602090829060449082905f905af18015610590576105d1915f91610b165750611f66565b90506020813d6020116115ee575b816115df60209383611c30565b810103126100e057518361157d565b3d91506115d2565b60405163039dd75360e41b81526001600160a01b03851660048201526024810192909252602082806044810103817f00000000000000000000000000000000000000000000000000000000000000006001600160a01b03165afa918215610590575f926117e5575b50604051636fc4eddd60e01b8152915f836004816001600160a01b0388165afa908115610590575f935f926117c6575b507f00000000000000000000000000000000000000000000000000000000000000006001600160a01b03163b156100e057604051637921219560e11b8152915f918391829161170e91908b907f00000000000000000000000000000000000000000000000000000000000000006001600160a01b03163060048701611ee7565b0381837f00000000000000000000000000000000000000000000000000000000000000006001600160a01b03165af18015610590576117b7575b5060405163a9059cbb60e01b81523360048201526024810186905291602090839060449082905f906001600160a01b03165af191821561059057602092611795915f9161179a5750611f1a565b611552565b6117b19150843d86116105895761057b8183611c30565b87610551565b6117c090611c08565b85611748565b9093506117dd91503d805f833e6105c18183611c30565b90928761168e565b9091506020813d602011611811575b8161180160209383611c30565b810103126100e05751908561165e565b3d91506117f4565b61182290611c08565b8561154b565b506020813d602011611854575b8161184260209383611c30565b810103126100e0576112f490516112ea565b3d9150611835565b9091506020813d602011611888575b8161187860209383611c30565b810103126100e057519086611296565b3d915061186b565b90506020813d6020116118ba575b816118ab60209383611c30565b810103126100e0575185611267565b3d915061189e565b346100e0575f3660031901126100e0576040517f00000000000000000000000000000000000000000000000000000000000000006001600160a01b03168152602090f35b346100e05760803660031901126100e0576020611935611924611b76565b606435906044359060243590612036565b604051908152f35b346100e0575f3660031901126100e0576040517f00000000000000000000000000000000000000000000000000000000000000006001600160a01b03168152602090f35b346100e0576020806003193601126100e057604051636a16e06160e11b8152600480359082018190526024927f00000000000000000000000000000000000000000000000000000000000000006001600160a01b0316929181838681875afa928315610590575f93611af4575b50611a116119fb84611c52565b93611a096040519586611c30565b808552611c52565b8383019490601f19013686375f5b8451811015611ab05760405190630141320560e21b825283600483015280888301528482604481865afa8015610590575f90611a81575b611a759250611a7a575f5b611a6b8288611ebf565b9015159052611e9d565b611a1f565b6001611a61565b508482813d8311611aa9575b611a978183611c30565b810103126100e057611a759151611a56565b503d611a8d565b83858760405192839281840190828552518091526040840192915f5b828110611adb57505050500390f35b8351151585528695509381019392810192600101611acc565b9092508181813d8311611b1c575b611b0c8183611c30565b810103126100e0575191856119ee565b503d611b02565b346100e05760203660031901126100e0576004359063ffffffff60e01b82168092036100e057602091630271189760e51b8114908115611b65575b5015158152f35b6301ffc9a760e01b14905083611b5e565b600435906001600160a01b03821682036100e057565b602435906001600160a01b03821682036100e057565b60609060031901126100e0576001600160a01b039060043582811681036100e0579160243590811681036100e0579060443590565b9181601f840112156100e05782359167ffffffffffffffff83116100e0576020808501948460051b0101116100e057565b67ffffffffffffffff8111611c1c57604052565b634e487b7160e01b5f52604160045260245ffd5b90601f8019910116810190811067ffffffffffffffff821117611c1c57604052565b67ffffffffffffffff8111611c1c5760051b60200190565b81601f820112156100e057803591611c8183611c52565b92611c8f6040519485611c30565b808452602092838086019260051b8201019283116100e0578301905b828210611cb9575050505090565b81358152908301908301611cab565b67ffffffffffffffff8111611c1c57601f01601f191660200190565b81601f820112156100e057803590611cfb82611cc8565b92611d096040519485611c30565b828452602083830101116100e057815f926020809301838601378301015290565b908160209103126100e0575180151581036100e05790565b5f5b838110611d535750505f910152565b8181015183820152602001611d44565b91906040838203126100e05782516001600160a01b03811681036100e0579260208101519067ffffffffffffffff82116100e0570181601f820112156100e0578051611dae81611cc8565b92611dbc6040519485611c30565b818452602082840101116100e057611dda9160208085019101611d42565b90565b90602091611df681518092818552858086019101611d42565b601f01601f1916010190565b919360a093611dda9695600180871b038094168552602085015260408401521660608201528160808201520190611ddd565b9081518082526020808093019301915f5b828110611e53575050505090565b835185529381019392810192600101611e45565b9594939092611e989260809460018060a01b031688526020880152604087015260a0606087015260a0860190611e34565b930152565b5f198114611eab5760010190565b634e487b7160e01b5f52601160045260245ffd5b8051821015611ed35760209160051b010190565b634e487b7160e01b5f52603260045260245ffd5b9192611dda95949160a094600180871b038092168552166020840152604083015260608201528160808201520190611ddd565b15611f2157565b60405162461bcd60e51b815260206004820152601d60248201527f5772617070656420746f6b656e207472616e73666572206661696c65640000006044820152606490fd5b15611f6d57565b60405162461bcd60e51b815260206004820152601a60248201527f436f6c6c61746572616c207472616e73666572206661696c65640000000000006044820152606490fd5b91908203918211611eab57565b90611fc982611c52565b611fd66040519182611c30565b8281528092611fe7601f1991611c52565b0190602036910137565b9190811015611ed35760051b0190565b61200a81611fbf565b905f5b81811061201957505090565b806001612031921b61202b8286611ebf565b52611e9d565b61200d565b60405163856296f760e01b8152600481019290925260248201929092526044810192909252602091906001600160a01b037f00000000000000000000000000000000000000000000000000000000000000008116918484606481865afa938415610590575f9461211c575b5060405163039dd75360e41b815291166001600160a01b031660048201526024810192909252909190819083908180604481015b03915afa908115610590575f916120ed575b50905090565b82813d8311612115575b6121018183611c30565b81010312612112575051805f6120e7565b80fd5b503d6120f7565b90938582813d8311612146575b6121338183611c30565b81010312612112575051926120d56120a1565b503d61212956fea26469706673582212209fd94b491b3ec593727d45a523a4214bdcce5599b88452160e13be0b85a0084564736f6c63430008140033","linkReferences":{}},"methodIdentifiers":{"conditionalTokens()":"5bd9e299","getTokenId(address,bytes32,bytes32,uint256)":"1a09424a","getWinningOutcomes(bytes32)":"02bd74c3","mergePositions(address,address,uint256)":"7abef8d1","onERC1155BatchReceived(address,address,uint256[],uint256[],bytes)":"bc197c81","onERC1155Received(address,address,uint256,uint256,bytes)":"f23a6e61","redeemPositions(address,address,uint256[],uint256[])":"865955a0","splitPosition(address,address,uint256)":"d5f82280","supportsInterface(bytes4)":"01ffc9a7","wrapped1155Factory()":"150c5b97"},"id":10}