{"abi":[{"type":"constructor","inputs":[{"name":"_market","type":"address","internalType":"address"},{"name":"_arbitrator","type":"address","internalType":"address"},{"name":"_realitio","type":"address","internalType":"contract IRealityETH_v3_0"},{"name":"_wrapped1155Factory","type":"address","internalType":"contract IWrapped1155Factory"},{"name":"_conditionalTokens","type":"address","internalType":"contract IConditionalTokens"},{"name":"_collateralToken","type":"address","internalType":"address"},{"name":"_realityProxy","type":"address","internalType":"contract RealityProxy"},{"name":"_questionTimeout","type":"uint32","internalType":"uint32"}],"stateMutability":"nonpayable"},{"type":"function","name":"allMarkets","inputs":[],"outputs":[{"name":"","type":"address[]","internalType":"address[]"}],"stateMutability":"view"},{"type":"function","name":"arbitrator","inputs":[],"outputs":[{"name":"","type":"address","internalType":"address"}],"stateMutability":"view"},{"type":"function","name":"collateralToken","inputs":[],"outputs":[{"name":"","type":"address","internalType":"address"}],"stateMutability":"view"},{"type":"function","name":"conditionalTokens","inputs":[],"outputs":[{"name":"","type":"address","internalType":"contract IConditionalTokens"}],"stateMutability":"view"},{"type":"function","name":"createCategoricalMarket","inputs":[{"name":"params","type":"tuple","internalType":"struct MarketFactory.CreateMarketParams","components":[{"name":"marketName","type":"string","internalType":"string"},{"name":"outcomes","type":"string[]","internalType":"string[]"},{"name":"questionStart","type":"string","internalType":"string"},{"name":"questionEnd","type":"string","internalType":"string"},{"name":"outcomeType","type":"string","internalType":"string"},{"name":"parentOutcome","type":"uint256","internalType":"uint256"},{"name":"parentMarket","type":"address","internalType":"address"},{"name":"category","type":"string","internalType":"string"},{"name":"lang","type":"string","internalType":"string"},{"name":"lowerBound","type":"uint256","internalType":"uint256"},{"name":"upperBound","type":"uint256","internalType":"uint256"},{"name":"minBond","type":"uint256","internalType":"uint256"},{"name":"openingTime","type":"uint32","internalType":"uint32"},{"name":"tokenNames","type":"string[]","internalType":"string[]"}]}],"outputs":[{"name":"","type":"address","internalType":"address"}],"stateMutability":"nonpayable"},{"type":"function","name":"createMultiCategoricalMarket","inputs":[{"name":"params","type":"tuple","internalType":"struct MarketFactory.CreateMarketParams","components":[{"name":"marketName","type":"string","internalType":"string"},{"name":"outcomes","type":"string[]","internalType":"string[]"},{"name":"questionStart","type":"string","internalType":"string"},{"name":"questionEnd","type":"string","internalType":"string"},{"name":"outcomeType","type":"string","internalType":"string"},{"name":"parentOutcome","type":"uint256","internalType":"uint256"},{"name":"parentMarket","type":"address","internalType":"address"},{"name":"category","type":"string","internalType":"string"},{"name":"lang","type":"string","internalType":"string"},{"name":"lowerBound","type":"uint256","internalType":"uint256"},{"name":"upperBound","type":"uint256","internalType":"uint256"},{"name":"minBond","type":"uint256","internalType":"uint256"},{"name":"openingTime","type":"uint32","internalType":"uint32"},{"name":"tokenNames","type":"string[]","internalType":"string[]"}]}],"outputs":[{"name":"","type":"address","internalType":"address"}],"stateMutability":"nonpayable"},{"type":"function","name":"createMultiScalarMarket","inputs":[{"name":"params","type":"tuple","internalType":"struct MarketFactory.CreateMarketParams","components":[{"name":"marketName","type":"string","internalType":"string"},{"name":"outcomes","type":"string[]","internalType":"string[]"},{"name":"questionStart","type":"string","internalType":"string"},{"name":"questionEnd","type":"string","internalType":"string"},{"name":"outcomeType","type":"string","internalType":"string"},{"name":"parentOutcome","type":"uint256","internalType":"uint256"},{"name":"parentMarket","type":"address","internalType":"address"},{"name":"category","type":"string","internalType":"string"},{"name":"lang","type":"string","internalType":"string"},{"name":"lowerBound","type":"uint256","internalType":"uint256"},{"name":"upperBound","type":"uint256","internalType":"uint256"},{"name":"minBond","type":"uint256","internalType":"uint256"},{"name":"openingTime","type":"uint32","internalType":"uint32"},{"name":"tokenNames","type":"string[]","internalType":"string[]"}]}],"outputs":[{"name":"","type":"address","internalType":"address"}],"stateMutability":"nonpayable"},{"type":"function","name":"createScalarMarket","inputs":[{"name":"params","type":"tuple","internalType":"struct MarketFactory.CreateMarketParams","components":[{"name":"marketName","type":"string","internalType":"string"},{"name":"outcomes","type":"string[]","internalType":"string[]"},{"name":"questionStart","type":"string","internalType":"string"},{"name":"questionEnd","type":"string","internalType":"string"},{"name":"outcomeType","type":"string","internalType":"string"},{"name":"parentOutcome","type":"uint256","internalType":"uint256"},{"name":"parentMarket","type":"address","internalType":"address"},{"name":"category","type":"string","internalType":"string"},{"name":"lang","type":"string","internalType":"string"},{"name":"lowerBound","type":"uint256","internalType":"uint256"},{"name":"upperBound","type":"uint256","internalType":"uint256"},{"name":"minBond","type":"uint256","internalType":"uint256"},{"name":"openingTime","type":"uint32","internalType":"uint32"},{"name":"tokenNames","type":"string[]","internalType":"string[]"}]}],"outputs":[{"name":"","type":"address","internalType":"address"}],"stateMutability":"nonpayable"},{"type":"function","name":"market","inputs":[],"outputs":[{"name":"","type":"address","internalType":"address"}],"stateMutability":"view"},{"type":"function","name":"marketCount","inputs":[],"outputs":[{"name":"","type":"uint256","internalType":"uint256"}],"stateMutability":"view"},{"type":"function","name":"markets","inputs":[{"name":"","type":"uint256","internalType":"uint256"}],"outputs":[{"name":"","type":"address","internalType":"address"}],"stateMutability":"view"},{"type":"function","name":"questionTimeout","inputs":[],"outputs":[{"name":"","type":"uint32","internalType":"uint32"}],"stateMutability":"view"},{"type":"function","name":"realitio","inputs":[],"outputs":[{"name":"","type":"address","internalType":"contract IRealityETH_v3_0"}],"stateMutability":"view"},{"type":"function","name":"realityProxy","inputs":[],"outputs":[{"name":"","type":"address","internalType":"contract RealityProxy"}],"stateMutability":"view"},{"type":"function","name":"wrapped1155Factory","inputs":[],"outputs":[{"name":"","type":"address","internalType":"contract IWrapped1155Factory"}],"stateMutability":"view"},{"type":"event","name":"NewMarket","inputs":[{"name":"market","type":"address","indexed":true,"internalType":"address"},{"name":"marketName","type":"string","indexed":false,"internalType":"string"},{"name":"parentMarket","type":"address","indexed":false,"internalType":"address"},{"name":"conditionId","type":"bytes32","indexed":false,"internalType":"bytes32"},{"name":"questionId","type":"bytes32","indexed":false,"internalType":"bytes32"},{"name":"questionsIds","type":"bytes32[]","indexed":false,"internalType":"bytes32[]"}],"anonymous":false}],"bytecode":{"object":"0x610180346200018557620022fe38819003601f8101601f191683016001600160401b03811184821017620001895783928291604052833961010092839181010312620001855762000050816200019d565b6200005e602083016200019d565b60408301516001600160a01b0391908281168103620001855760608501518381168103620001855760808601519184831683036200018557620000a460a088016200019d565b9660c08101519586168603620001855760e001519363ffffffff85168503620001855761016096875260a05260c05260e05285526101209384526101409182526080526040519261214b9485620001b386396080518581816101770152611a68015260a0518581816104650152611a2c015260c05185818161072a0152611aa4015260e05185818161012c0152611e18015251848181610421015281816116e501528181611c150152611e3c0152518381816106e60152611dee0152518281816101b0015281816112a90152611bda01525181818161059701526112410152f35b5f80fd5b634e487b7160e01b5f52604160045260245ffd5b51906001600160a01b0382168203620001855756fe60806040526004361015610011575f80fd5b5f3560e01c8063150c5b97146101045780631ba18b9b146100ff5780632ff8d504146100fa5780633412a3f9146100f5578063375a7cba146100f05780635bd9e299146100eb5780636cc6cde1146100e65780637ca5cb3e146100e157806380f55605146100dc5780638770b180146100d7578063b1283e77146100d2578063b2016bd4146100cd578063bc8802a2146100c8578063ec979082146100c35763ff08d88f146100be575f80fd5b610775565b610759565b610715565b6106d1565b610679565b6105c6565b610582565b610494565b610450565b61040c565b610345565b610211565b61019b565b61015b565b610117565b5f91031261011357565b5f80fd5b34610113575f366003190112610113576040517f00000000000000000000000000000000000000000000000000000000000000006001600160a01b03168152602090f35b34610113575f36600319011261011357602060405163ffffffff7f0000000000000000000000000000000000000000000000000000000000000000168152f35b34610113575f366003190112610113576040517f00000000000000000000000000000000000000000000000000000000000000006001600160a01b03168152602090f35b6003199060208183011261011357600435916001600160401b03831161011357826101c0920301126101135760040190565b3461011357610341610327610225366101df565b6102f461032160208301610247600261023e8387610953565b90501015610988565b61031960405194610257866109ff565b6001865261026760208701610ab0565b6102ca6102bc6102c461027a8480610b34565b6102878887949394610953565b92909161029760e0890189610b34565b96906102b46102aa6101008c018c610b34565b9890943691610b66565b973691610b66565b943691610b66565b93611799565b6102d387610bab565b526102dd86610bab565b506102fb6102eb8280610b34565b96909483610953565b9050610be5565b610303610a3b565b9687526020870152600360408701523690610ccb565b923691610b66565b90611229565b6040516001600160a01b0390911681529081906020820190565b0390f35b34610113575f80600319360112610409576040518091805490818352602080930180928280527f290decd9548b62a8d60345a988386fc84ba6bc95484008f6362f93160ef3e56390835b8181106103ec57505050846103a5910385610a1a565b60405193838594850191818652518092526040850193925b8281106103cc57505050500390f35b83516001600160a01b0316855286955093810193928101926001016103bd565b82546001600160a01b03168452928601926001928301920161038f565b80fd5b34610113575f366003190112610113576040517f00000000000000000000000000000000000000000000000000000000000000006001600160a01b03168152602090f35b34610113575f366003190112610113576040517f00000000000000000000000000000000000000000000000000000000000000006001600160a01b03168152602090f35b34610113576103416103276104a8366101df565b6104ca6101408201356104c16101208401358211610e1d565b60021911610e89565b6104e460026104dc6020840184610953565b905014610eea565b6103196103216104f2610acc565b9261054161031961053b6105068480610b34565b61051660e0879493940187610b34565b94906105336105296101008a018a610b34565b9690943691610b66565b953691610b66565b916118c6565b61054a85610bab565b5261055484610bab565b5061055f8180610b34565b93909161056a610a3b565b95865260036020870152600160408701523690610ccb565b34610113575f366003190112610113576040517f00000000000000000000000000000000000000000000000000000000000000006001600160a01b03168152602090f35b34610113576103416103276105da366101df565b6102f4610321602083016105f3600261023e8387610953565b61031960405194610603866109ff565b6001865261061360208701610ab0565b6106266102bc6102c461027a8480610b34565b61062f87610bab565b5261063986610bab565b506106476102eb8280610b34565b61064f610a3b565b9687526020870152600260408701523690610ccb565b634e487b7160e01b5f52603260045260245ffd5b34610113576020366003190112610113576004355f54811015610113575f80527f290decd9548b62a8d60345a988386fc84ba6bc95484008f6362f93160ef3e56301546040516001600160a01b039091168152602090f35b34610113575f366003190112610113576040517f00000000000000000000000000000000000000000000000000000000000000006001600160a01b03168152602090f35b34610113575f366003190112610113576040517f00000000000000000000000000000000000000000000000000000000000000006001600160a01b03168152602090f35b34610113575f3660031901126101135760205f54604051908152f35b3461011357610783366101df565b602080820191610798600261023e8584610953565b6107ac6107a58483610953565b9050610aeb565b905f60409485830194606084019160e08501926101008601945b896107d18489610953565b9050821015610889579061086961081161084287610834610884968f61082e8f8b61082e61081f8f958d6108086108179287610b34565b9d909887610953565b90610f58565b939094610b34565b959096519a8b998a0191610f6f565b91610f6f565b03601f198101835282610a1a565b8961053b8a61031961085f6108578d86610b34565b939095610b34565b9490923691610b66565b610873828b610bbd565b5261087e818a610bbd565b50610f36565b6107c6565b82898987876108988f84610b34565b90956108a76080860186610b34565b916108b29087610b34565b9190928a51998a95888701906108c792610f6f565b605b60f81b8152600101906108db92610f6f565b605d60f81b8152600101906108ef92610f6f565b03601f19810186526109019086610a1a565b61090b9083610953565b6109159150610be5565b9061091e610a3b565b938452830152838201600190523661093591610ccb565b9161093f92611229565b90516001600160a01b039091168152602090f35b903590601e198136030182121561011357018035906001600160401b03821161011357602001918160051b3603831361011357565b1561098f57565b606460405162461bcd60e51b815260206004820152602060248201527f4f7574636f6d657320636f756e74206d7573742062652032206f72206d6f72656044820152fd5b634e487b7160e01b5f52604160045260245ffd5b6001600160401b0381116109fa57604052565b6109d3565b604081019081106001600160401b038211176109fa57604052565b90601f801991011681019081106001600160401b038211176109fa57604052565b60405190606082018281106001600160401b038211176109fa57604052565b604051906101c082018281106001600160401b038211176109fa57604052565b6040519060e082018281106001600160401b038211176109fa57604052565b6001600160401b0381116109fa5760051b60200190565b5f5b60208110610abe575050565b606082820152602001610ab2565b60405190610ad9826109ff565b60018252610ae960208301610ab0565b565b90610af582610a99565b610b026040519182610a1a565b8281528092610b13601f1991610a99565b01905f5b828110610b2357505050565b806060602080938501015201610b17565b903590601e198136030182121561011357018035906001600160401b0382116101135760200191813603831361011357565b9291926001600160401b0382116109fa5760405191610b8f601f8201601f191660200184610a1a565b829481845281830111610113578281602093845f960137010152565b805115610bb85760200190565b610665565b8051821015610bb85760209160051b010190565b634e487b7160e01b5f52601160045260245ffd5b9060018201809211610bf357565b610bd1565b9080601f8301121561011357816020610c1393359101610b66565b90565b9080601f8301121561011357813590610c2e82610a99565b92610c3c6040519485610a1a565b828452602092838086019160051b8301019280841161011357848301915b848310610c6a5750505050505090565b82356001600160401b038111610113578691610c8b84848094890101610bf8565b815201920191610c5a565b6001600160a01b0381160361011357565b3590610ae982610c96565b63ffffffff81160361011357565b3590610ae982610cb2565b91906101c08382031261011357610ce0610a5a565b926001600160401b039181358381116101135781610cff918401610bf8565b855260208201358381116101135781610d19918401610c16565b602086015260408201358381116101135781610d36918401610bf8565b604086015260608201358381116101135781610d53918401610bf8565b606086015260808201358381116101135781610d70918401610bf8565b608086015260a082013560a0860152610d8b60c08301610ca7565b60c086015260e08201358381116101135781610da8918401610bf8565b60e0860152610100808301358481116101135782610dc7918501610bf8565b90860152610120808301359086015261014080830135908601526101608083013590860152610180610dfa818401610cc0565b908601526101a0928383013590811161011357610e179201610c16565b90830152565b15610e2457565b60405162461bcd60e51b815260206004820152602960248201527f7570706572426f756e64206d75737420626520686967686572207468616e206c6044820152681bddd95c909bdd5b9960ba1b6064820152608490fd5b5f19810191908211610bf357565b15610e9057565b60405162461bcd60e51b815260206004820152602c60248201527f7570706572426f756e64206d757374206265206c657373207468616e2075696e60448201526b3a191a9b1736b0bc1016901960a11b6064820152608490fd5b15610ef157565b60405162461bcd60e51b815260206004820152601860248201527f4f7574636f6d657320636f756e74206d757374206265203200000000000000006044820152606490fd5b5f198114610bf35760010190565b9015610bb85780610f5491610b34565b9091565b90821015610bb857610f549160051b810190610b34565b908092918237015f815290565b5f5b838110610f8d5750505f910152565b8181015183820152602001610f7e565b90602091610fb681518092818552858086019101610f7c565b601f01601f1916010190565b90815180825260208092019182818360051b85019501935f915b848310610fec5750505050505090565b909192939495848061100683856001950387528a51610f9d565b9801930193019194939290610fdc565b9081518082526020808093019301915f5b828110611035575050505090565b835185529381019392810192600101611027565b610c139160406110628351606084526060840190611016565b92602081015160208401520151906040818403910152610fc2565b979695949193906110996110a89160e08b5260e08b0190610f9d565b6020958a8203878c0152610fc2565b9260408901526060880152868203608088015260e082018151835283820151848401526040820151604084015260018060a01b03908160608401511660608501526080830151608085015260a08301519460e060a086015285518092528061010086019601925f905b83821061115e5750505050509261113d60c09361114b9385610ae9989701519086818403910152610fc2565b9087820360a0890152611049565b6001600160a01b03909216940193909352565b8451811688529682019693820193600190910190611111565b6040513d5f823e3d90fd5b9193909261119c610c13969460a0855260a0850190610f9d565b6001600160a01b03909516602084015260408301526060820152808303608090910152611016565b5f54680100000000000000008110156109fa5760018101805f55811015610bb8575f80527f290decd9548b62a8d60345a988386fc84ba6bc95484008f6362f93160ef3e5630180546001600160a01b0319166001600160a01b03909216919091179055565b9161123490836114e0565b92906112716112656112657f000000000000000000000000000000000000000000000000000000000000000061136a565b6001600160a01b031690565b936020830151926101208101519361014082015194873b15610113575f916112d28886886040519a8b96879663d0e2ca6560e01b88527f0000000000000000000000000000000000000000000000000000000000000000956004890161107d565b0381838a5af19384156113655760c06113409261131f927f109e5ac06d4835cca9a97d9014f7bb1bfafb85a2de6d4af1ad22aa8730e12c879761134c575b5001516001600160a01b031690565b916080845194015190519060405194859460018060a01b038a169886611182565b0390a2610c13816111c4565b8061135961135f926109e7565b80610109565b5f611310565b611177565b6e5af43d82803e903d91602b57fd5bf390763d602d80600a3d3981f3363d3d373d3d3d363d7300000062ffffff8260881c16175f5260781b17602052603760095ff0906001600160a01b038216156113be57565b60405162461bcd60e51b8152602060048201526016602482015275115490cc4c4d8dce8818dc99585d194819985a5b195960521b6044820152606490fd5b6040519060e082018281106001600160401b038211176109fa57604052606060c0835f81525f60208201525f60408201525f838201525f60808201528260a08201520152565b60405190606082018281106001600160401b038211176109fa5760405260606040838281525f60208201520152565b90816020910312610113575190565b9061148a82610a99565b6114976040519182610a1a565b82815280926114a8601f1991610a99565b0190602036910137565b9195949390926114cc60809460a0855260a0850190611016565b966020840152604083015260608201520152565b916114e96113fc565b506114f2611442565b5060c0830180519092905f906001600160a01b039081168061163f575050505f5b61151e825151611480565b925f5b83518051821015611571579061155c61153d8261156c94610bbd565b5160408701516101808b015163ffffffff16906101608c0151926119ee565b6115668288610bbd565b52610f36565b611521565b505093929460a090602081015151926116138860408701956115b0875191610834610120880151610140890151906040519586946020860198896114b2565b5190209160208701976115ed6115da6115ca8b5187611bc3565b9a516101a0880151908c86611dca565b979096015191516001600160a01b031690565b916115f6610a7a565b998a5260208a015260408901526001600160a01b03166060880152565b608086015260a085015260c08401525190519061162e610a3b565b948552602085015260408401529190565b604051809163225f51bf60e11b825281600460209485935afa8015611365576004918591611765575b508751839061168190611265906001600160a01b031681565b604051632ddc7de760e01b815293849182905afa938415611365576116e19484938791611748575b50600160a08c01511b926040519687948593849363856296f760e01b8552600485016040919493926060820195825260208201520152565b03917f0000000000000000000000000000000000000000000000000000000000000000165afa928315611365579261171b575b5050611513565b61173a9250803d10611741575b6117328183610a1a565b810190611471565b5f80611714565b503d611728565b61175f9150843d8611611741576117328183610a1a565b5f6116a9565b61177c9150833d8511611741576117328183610a1a565b5f611668565b9061179560209282815194859201610f7c565b0190565b9390929192604092835191602094836117be87820160039062e2909f60e81b81520190565b03966117d2601f1998898101875286610a1a565b61082e6118188861180c6117ff6117e98689610f44565b8851601160f91b95810195865296879560010190565b601160f91b815260010190565b038a8101835282610a1a565b926001915b8083106118705750505092611858610c139796959361185861185e611858956118586118526118649a519e8f9c8d0190611782565b87611782565b90611782565b84611782565b03908101835282610a1a565b9091936118bf906118b98a6118ad6117ff61188c8a888a610f58565b61082e61189f8c51988997880190611782565b61161160f11b815260020190565b038c8101835282610a1a565b94610f36565b919061181d565b91610c139192604051916020928381019062e2909f60e81b8252600381526118ed816109ff565b61193b60405197856119088a975180928a808b019101610f7c565b860183519061191a828a830188610f7c565b0161192d825180938a8085019101610f7c565b019151809387840190610f7c565b0161194e82518093868085019101610f7c565b01038084520182610a1a565b909160249392825263ffffffff60e01b9060e01b1660208201526119878251809360208685019101610f7c565b010190565b908160209103126101135751610c1381610cb2565b929695949060c094926119c191855260e0602086015260e0850190610f9d565b6001600160a01b03909716604084015263ffffffff91821660608401521660808201525f60a08201520152565b91611afd926040519260209586850185611a0a8587868561195a565b0395611a1e601f1997888101835282610a1a565b5190206040518089019182527f0000000000000000000000000000000000000000000000000000000000000000606081811b6bffffffffffffffffffffffff1990811660208601527f000000000000000000000000000000000000000000000000000000000000000060e081901b6001600160e01b0319166034870152603886018790527f000000000000000000000000000000000000000000000000000000000000000080841b831660588801523090931b909116606c8601525f60808601529991986001600160a01b039190911697939291908260a08501611864565b519020604051634f8812e360e11b81526004810182905289816024818a5afa80156113655763ffffffff915f91611b96575b5016611b8a575091611b5e5f928997969594604051998a9889978896631212e4f160e21b8852600488016119a1565b03925af1918215611365575f92611b7457505090565b610c139250803d10611741576117328183610a1a565b97505050505050505090565b611bb691508b3d8d11611bbc575b611bae8183610a1a565b81019061198c565b5f611b2f565b503d611ba4565b604051634296357160e11b81526001600160a01b037f000000000000000000000000000000000000000000000000000000000000000081166004830181905260248301849052604483018590529193907f00000000000000000000000000000000000000000000000000000000000000001660208086606481855afa958615611365575f96611d0a575b50604051636a16e06160e11b8152600481018790528181602481865afa918215611365575f92611ced575b505015611c87575b5050505090565b803b156101135760405163365bb9d560e21b81526001600160a01b0393909316600484015260248301939093526044820152905f908290606490829084905af1801561136557611cda575b808080611c80565b80611359611ce7926109e7565b5f611cd2565b611d039250803d10611741576117328183610a1a565b5f80611c78565b81611d229297503d8811611741576117328183610a1a565b945f611c4d565b15611d3057565b60405162461bcd60e51b81526020600482015260126024820152714d697373696e6720746f6b656e206e616d6560701b6044820152606490fd5b60405190611d77826109ff565b600b82526a14d1548b5253959053125160aa1b6020830152565b908160209103126101135751610c1381610c96565b610c13939260609260018060a01b0316825260208201528160408201520190610f9d565b93919092611dd782610e7b565b94611de183611480565b95611deb84610aeb565b957f0000000000000000000000000000000000000000000000000000000000000000906001600160a01b037f00000000000000000000000000000000000000000000000000000000000000008116907f0000000000000000000000000000000000000000000000000000000000000000165f5b888110611e7057505050505050505050565b6040805163856296f760e01b815260048082018a9052602482018790526001841b6044830152909290916020908185606481895afa94851561136557611eeb9583915f91612094575b50825163039dd75360e41b81526001600160a01b038c1687820190815260208101929092529687918291604090910190565b0381895afa938415611365578c87928c975f97612063575b5084939291611f9d91879899611f7898149182801561204a575b611f2690611d29565b821561203c5789611f3d611f38611d6a565b6120b1565b9315612026575050611f86611f53611f38611d6a565b928251998a9485928a8401909160419282526020820152600960f91b60408201520190565b03601f198101845283610a1a565b51631892c08760e11b815298899485948501611da6565b03815f8a5af1908115611365578f8f90611fde90611fe39487611fee9981965f93611ff3575b5050611fcf9192610bbd565b6001600160a01b039091169052565b610bbd565b5261087e818d610bbd565b611e5e565b611fcf9350908161201892903d1061201f575b6120108183610a1a565b810190611d91565b915f611fc3565b503d612006565b612036611f5391611f8693610bbd565b516120b1565b89611f3d6120368284610bbd565b50611f266120588b83610bbd565b515115159050611f1d565b611f7896975091611f9d9161208787969594873d8911611741576117328183610a1a565b9897509150919293611f03565b6120ab9150823d8411611741576117328183610a1a565b5f611eb9565b80519060208210156120de5760200151816020039160208311610bf35760011b915f199060031b1b161790565b60405162461bcd60e51b815260206004820152600f60248201526e737472696e6720746f6f206c6f6e6760881b6044820152606490fdfea264697066735822122039dfe32b8fc079162a88d4442524f904b037ffe898f59c712e9f5bb17dc857f264736f6c63430008140033","linkReferences":{}},"methodIdentifiers":{"allMarkets()":"375a7cba","arbitrator()":"6cc6cde1","collateralToken()":"b2016bd4","conditionalTokens()":"5bd9e299","createCategoricalMarket((string,string[],string,string,string,uint256,address,string,string,uint256,uint256,uint256,uint32,string[]))":"8770b180","createMultiCategoricalMarket((string,string[],string,string,string,uint256,address,string,string,uint256,uint256,uint256,uint32,string[]))":"3412a3f9","createMultiScalarMarket((string,string[],string,string,string,uint256,address,string,string,uint256,uint256,uint256,uint32,string[]))":"ff08d88f","createScalarMarket((string,string[],string,string,string,uint256,address,string,string,uint256,uint256,uint256,uint32,string[]))":"7ca5cb3e","market()":"80f55605","marketCount()":"ec979082","markets(uint256)":"b1283e77","questionTimeout()":"1ba18b9b","realitio()":"bc8802a2","realityProxy()":"2ff8d504","wrapped1155Factory()":"150c5b97"},"id":8}